S01B0000486F6C6F6465636B5F626F64795F747261636B2E737265635F
S21408000040850720C9320800C5320800C5320800F6
S214080010C5320800C5320800C532080000000000D6
S214080020000000000000000000000000C5320800C4
S214080030C532080000000000C5320800C5320800B6
S214080040C5320800C5320800C5320800C5320800A7
S214080050C5320800C5320800C5320800C532080097
S214080060C5320800C532080000000000D930080074
S214080070ED300800013108001531080000000000C6
S21408008000000000C5320800C5320800C532080066
S214080090C5320800C5320800C5320800C532080057
S2140800A0C532080000000000C5320800C532080046
S2140800B0C5320800C5320800C5320800C532080037
S2140800C0C5320800C5320800C5320800C532080027
S2140800D0C5320800C5320800C5320800C532080017
S2140800E0911F0800C5320800C5320800C53208004E
S2140800F0C532080008B50548054B1B1A062B00D85C
S21408010008BD044B002BFBD09847F9E71C7909007B
S2140801101F7909000000000008B50748074B1B1A9E
S2140801209B1003EBD373591000D108BD044A002A6C
S214080130FBD09047F9E700BF1C7909001C79090035
S2140801400000000010B5064C237843B9FFF7D2FF2D
S214080150044B13B10448AFF300800123237010BD8D
S21408016080090720000000001C79090008B5084B24
S2140801701BB108480849AFF300800848036813B164
S214080180074B03B19847BDE80840FFF7C5BF00BF57
S214080190000000001C790900840907201C79090062
S2140801A0000000000000000010B5C3170A4AA0FBB4
S2140801B0020102FB031106A3D3E90023801841EBD2
S2140801C00301064A0023064CA047064B984710BD75
S2140801D07F9FD5000000000000BD0105809FD50068
S2140801E0F5C808000100072000200021704700BF5E
S2140801F038B505460C46084B1B7863B1074B98473D
S21408020010B9074B984738BD0022064B1A70284687
S2140802102146054B984738BD2C0B0720311208009D
S214080220C10E08000C000720E912080038B50C4D6E
S2140802300C4C02E0A0470028FCD02B78002BF9D005
S214080240094B9847094C0A4B93E8070084E80700CF
S2140802502046084B984701462046074B984738BD26
S2140802602C0B0720D11008008D1108009C090720C8
S2140802700C22090019DC0800F10108000120014BD6
S214080280187070472C0B07200022014B1A70704715
S2140802902C0B07200122014B1A7070470C00072010
S2140802A008B5B0F1FF3F06D1032003494FF0FF32EF
S2140802B0024B9847FEE708BD7C5A0900E1AB0800E8
S2140802C02DE9F04186B00646884617466C461A4D14
S2140802D00FCD0FC495E8030084E8030006AB03EBD4
S2140802E0860616484FF48071154A56F8183C154C81
S2140802F0A0470446FF281CD810482044C4F580713F
S21408030042463B46104DA8470444FF2C11D80B48DC
S2140803102044C4F580710D4A0A4B98472044FF28AC
S21408032007D8064C20460A4B984701462046094BF4
S214080330984706B0BDE8F08118220900300B072060
S214080340EC5B090019DB0800B7F40800885A0900B6
S21408035019DC0800F101080000B589B08DF8140012
S2140803600023009304930123019305AA02920393A2
S21408037070238DF8103003486946034B984709B038
S2140803805DF804FB00C00840992C080000B589B049
S21408039000238DF81430009304930123019305AAD3
S2140803A0029203938DF8100004486946044B984758
S2140803B09DF8140009B05DF804FB00BF00C00840B3
S2140803C0ED2B08002DE9F84F244F07F10C05002403
S2140803D0DFF89CB0DFF89C80DFF89CA00320594625
S2140803E0C04704EBD4735B1045F80C3C14F0010FBF
S2140803F00CBF6823692305F8083C55F80C3C012215
S21408040002FA03F0C0B2D04715F8080C144B984708
S2140804108146032013494A46C047B9F1EA0F09D175
S2140804200320114955F80C2C15F8083CC047012341
S214080430BB6008E00023BB6003200C4955F80C2C71
S21408044015F8083CC0470023FB60013407F5A96788
S21408045005F5A965102CC1D1BDE8F88F3815072019
S2140804608D030800A45A0900B05A0900E85A090082
S2140804708C5A0900E1AB0800590308002DE9F04F33
S21408048085B0844F07F1080407F59E4808F1400830
S214080490DFF87492804DDFF874A203204946A84717
S2140804A0264654F8083C012B40F0C180FF238DF8FF
S2140804B00F300320794954F8102CA84754F8103CFC
S2140804C0012202FA03F0C0B2754B984714F80C0CD8
S2140804D0744B98478346032073495A46A847BBF18E
S2140804E0EA0F40F0D380714B9847014643F2D27327
S2140804F0009320466E4A6F4BDFF814C2E047C6F8F2
S21408050030450CB1FB682BB96B4873216B4A6C4BB2
S2140805106C4CA0471B682BB1B8680DF10F019847C3
S214080520834601E06FF0010B032067499DF80F2012
S214080530A8470320654956F8102CA8475846644B28
S214080540984703206349A847D6F830350BB15A6850
S2140805502AB959489E21604A594B5A4CA047926876
S21408056012B11868904701E06FF00100584B9847A1
S21408057003205A49A847D6F830350BB15A682AB925
S2140805804D48E621564A4E4B4E4CA04716694EB18A
S21408059018680123009300210191464A43F2D2735A
S2140805A0B04701E06FF00100494B98474D4BD3F830
S2140805B0886A0EB1736833B93F4840F221114A4A37
S2140805C03F4B404CA0471B6A002B3BD030680B21A2
S2140805D0984783460B20454B98470246BBF1000FC9
S2140805E035D045E0344840F27F11414A344B354C0B
S2140805F0A047DB6A002B40D030680B2142F210720D
S214080600984783463BE02C4840F25111394A2C4B18
S2140806102C4CA0479B6A23B130680B2101229847CF
S21408062001E06FF001005844294B984702E0032088
S2140806305146A84707F5A96704F5A96444457FF419
S2140806402CAF23E00B20294B9847024610E00320E6
S21408065029492A4BA8470B20244B984702460320D3
S214080660274942F21073A8477368002BC1D1B9E72F
S21408067003202149234BA847DCE76FF0010B5846B7
S214080680134B98477368002BC4D1BCE705B0BDE888
S214080690F08F00BF40150720E1AB08001C5B09007F
S2140806A0590308008D030800445B09003536080026
S2140806B0F05E0900A8220900505B09009422090090
S2140806C0705B0900B5CE0800805B0900905B0900E6
S2140806D0A1020800B05B0900085F0900C85B0900B2
S2140806E0F85E0900381507203022090075AB0800A7
S2140806F06022090048220900E45B0900F05B090053
S214080700F45B0900085C0900105B0900D85B090067
S214080710513E080038B505201249134B9847134D2B
S21408072003202946124CA04703201249A04703205D
S2140807302946A04703201049A047104B984728B9D8
S2140807400F4884210F4A104B104CA047036898475F
S2140807500F4B98470F4B984703200F49044B984771
S214080760FEE700BFC1020800B5AB08000C5C090034
S214080770E1AB0800305C0900545C09003536080017
S214080780705C090080220900905C0900B5CE08005C
S214080790C50308007D0408009C5C090006300C2888
S2140807A01ED8DFE800F01B19171513111D071F09BF
S2140807B00B0D0F000C4870470C4870470C487047E4
S2140807C00C4870470C4870470C4870470C487047F0
S2140807D00C4870470C4870470C4870470C487047E0
S2140807E00C4870470C487047B45C0900D85C090090
S2140807F0E85C0900FC5C0900085D0900145D090056
S214080800245D0900305D09003C5D09004C5D090067
S214080810585D0900645D0900C85C09002DE9F041CF
S21408082086B006464368002B40F06581006820F0D5
S2140808300043013B202B00F25781DFE813F033001A
S21408084069003D014E00550155015501550133001B
S2140808503300D80055015501AE00D8008400550174
S21408086055014C01F9005501550155015501550131
S2140808703D0155015501550155015501210021003D
S2140808807B4B98470246D6E90245CDE900453369D1
S214080890029373690393B369049303207549764BEF
S2140808A0984728E1724B98478046744D30697449DA
S2140808B0A847744CA047074670697149A847A047DF
S2140808C00090B0696E49A847A047019003206E497A
S2140808D042463B46684CA0470DE1654B9847804624
S2140808E0664D30696649A847664CA0470746706952
S2140808F06349A847A0470090B0696149A847A04740
S21408090001900320614942463B465B4CA047F2E013
S214080910574B98478046594D30695949A847594C0E
S214080920A047074670695649A847A0470090B0698F
S2140809305349A847A04701900320554942463B46DD
S2140809404D4CA047D7E04A4B984780464B4D3069F8
S2140809504B49A8474B4CA047074670694849A847E3
S214080960A0470090B0694649A847A0470190F0699B
S2140809704349A847A0470290306A4149A847A0477C
S2140809800390706A3E49A847A0470490032041494F
S21408099042463B46384CA047ADE0354B9847804624
S2140809A0364D30693649A847364CA0470746706921
S2140809B03349A847A0470090B0693149A847A047DF
S2140809C00190F0692E49A847A0470290306A2C4942
S2140809D0A847A0470390706A2949A847A0470490EB
S2140809E003202D4942463B46234CA04783E0DFF8C8
S2140809F0C4802A4F3069B84704460D467069B84720
S214080A00CDE90001B069B847CDE90201F069B847F9
S214080A10CDE904014046224922462B46214CA047F0
S214080A204046214B984701464046204B984762E08F
S214080A300F4B98478046114D30691149A847114C0D
S214080A40A047074670690E49A847A0470090B069B6
S214080A500B49A847A0470190F0690949A847A0474D
S214080A6002900320124942463B46034CA04742E008
S214080A7075AB0800785D0900E1AB08001DC50800E5
S214080A8000007A44A9C808009C5D0900BC5D0900FE
S214080A90DC5D0900FC5D0900245E090095BD0800C0
S214080AA04C5E0900BDDB080019DC0800F1010800EF
S214080AB0645E0900300C0720104B984705463469D9
S214080AC020460F4B9847009003200E492A46234697
S214080AD00D4CA0470FE0094B9847024603200B49E8
S214080AE03369094CA04706E0044B984702460320A2
S214080AF00749054B984706B0BDE8F08175AB080076
S214080B009D070800885E0900E1AB0800A05E0900A2
S214080B10B45E090001207047101E03DD0023013370
S214080B208342FCD1704700BF024B1A78013AD2B212
S214080B301A707047CC0D07200020704700207047B9
S214080B401D4B1B7813F0800F12D003F06003202B88
S214080B5028D1194B5B78212B26D1174BDB88072B1E
S214080B6024D1154B154A9A6007229A8101207047AE
S214080B7003F06003202B1BD10F4B5878202804D095
S214080B80222814BF0020012070470B4BDB88072B58
S214080B9010D1094B0A4A1A61084A9A6007229A81B4
S214080BA001207047002070470020704700207047DB
S214080BB0002070470020704778640720300D072013
S214080BC0C50B0800704700BF08B50023104A13700D
S214080BD0104A1380104AA1211170202151705380A9
S214080BE093800221D18013810C4A4FF4E1311160C1
S214080BF01371537108239371094B9847034620B124
S214080C00034A11780131C9B21170184608BD00BFF1
S214080C10CC0D07207C0E0720E80D0720300D072096
S214080C207D02080030B583B0424B1B7813F0FF0FE7
S214080C307ED1414B984730B1404B1C88404B984773
S214080C40844206D174E03D4B1C883E4B984784424C
S214080C506ED0EFF31083D3F1010538BF002572B6C6
S214080C60BFF35F8F0022384B1A70384B1C78E4B2FB
S214080C70374B33F81430DBB9364B1A8801321A80F2
S214080C802D4B984718B9334B1B88632B07D92A4B2B
S214080C90984768B12F4B1B88B3F5487F08D2002DBC
S214080CA046D00122284B1A70BFF35F8F62B63FE02A
S214080CB00022284B1A80284B1B7813F0FF0F06D10A
S214080CC0944214BF00220122204B1A7003E0D4F18C
S214080CD0010438BF00240122164B1A7025B11A4B9E
S214080CE01A70BFF35F8F62B62546194B33F8144067
S214080CF0403C18BF012464B10F4B984720B1104BF5
S214080D0098470E4B188007E00E4B98470B4B1880F9
S214080D1002E00022094B1A800D4B33F815300F4AB3
S214080D200092812021460E4A02EB85120D4CA04700
S214080D3003B030BDE40D07209D250800D80D072018
S214080D40E9250800D9250800B00007203C0D072033
S214080D50400D0720440D0720780E07204D0E08008A
S214080D60480D07201928080008B50020014B9847A9
S214080D7008BD00BF250C080010B582B00C4B1B78C8
S214080D809BB90C4B1B889BB20B4A12899A420CD013
S214080D90084B1B88084A1381084B00930846002115
S214080DA00A23074CA047024B187002B010BD00BFBC
S214080DB0D00D07207C0E0720E80D0720150E08002A
S214080DC01928080010B5EFF3108372B6BFF35F8FCB
S214080DD000240D48047029B10C49088880B20243E3
S214080DE00A8005E00949088880B220EA02020A80DB
S214080DF02BB90122044B1A70BFF35F8F62B600202E
S214080E008321034B984710BDB00007207C0E0720AF
S214080E10790D080008B50020084B187008490B889B
S214080E2023F07C031B041B0C0B80064B198921F04E
S214080E307C0119811146044B984708BDD00D072040
S214080E407C0E0720E80D0720790D080008B5A8B91C
S214080E500B4B1B7813F0FF0F14BF00200120002354
S214080E60084A22F81030084A1370084A137011B15D
S214080E701846074B98470020064B984708BD00BF02
S214080E803C0D0720400D0720780E0720E40D0720AC
S214080E9095020800250C080008B5064B1A78013A92
S214080EA0D2B21A701B78044B98470022034B1A706C
S214080EB008BD00BF380D072089020800DC0D072092
S214080EC008B5002001214022014B984708BD00BF05
S214080ED0C50D0800EFF3108372B6BFF35F8F0021CD
S214080EE0094A1170094A108880B2094A1178094AD5
S214080EF032F81120101A2BB90122034B1A70BFF3CF
S214080F005F8F62B6704700BFB0000720D40D072079
S214080F10E00D0720C80D072008B5034B984700309A
S214080F2018BF012008BD00BFD50E080010B582B056
S214080F30EFF31083D3F1010338BF002372B6BFF373
S214080F405F8F00211E4A11701E4A1478E4B21E4AAA
S214080F50127812F0FF0F07D11C4A128892B21C4969
S214080F6031F81410914208D93BB30122144B1A7079
S214080F70BFF35F8F62B6002020E00021134A11807D
S214080F808C4214BF002101210E4A117001210E4A1D
S214080F90117023B10A4B1970BFF35F8F62B6002039
S214080FA00C4B98470C4B0093022001210B4A02EB8E
S214080FB0841240230A4CA04700E0002002B010BD6F
S214080FC0B0000720E00D0720740E0720D40D072078
S214080FD0C80D0720190F080075100800F40D072023
S214080FE01928080010B50024154B1C70154B1C70EA
S214080FF0154B1C70154B1C70154B1C805C80154BD4
S2140810001C802046144B9847144B1C70144B1C70BD
S214081010144B1C80144B1C802046144B98470246E1
S21408102058B1074B19780131C9B219701B78DBB271
S214081030012B02D101210E4B1970104610BD00BFBE
S214081040380D0720E40D0720780E07203C0D0720F2
S214081050400D0720D80D0720250C0800740E072021
S214081060E00D0720C80D0720D40D07202D0F080017
S214081070DC0D072010B582B0D0B90E4B1B7813F0E4
S214081080FF0F14BF0023012351B90B4900911046E6
S21408109001210A4A02EB83124023094CA04707E0C5
S2140810A0084A22F813100020074B1870074B984779
S2140810B002B010BDE00D072075100800F40D0720DB
S2140810C019280800C80D0720740E07202D0F0800E1
S2140810D008B50020014B984708BD00BF190F080047
S2140810E02DE9F047214B93F80690B9F1090F14BF84
S2140810F04FF000094FF0010900201D4C80460746B6
S2140811001C4D1D4EEFF3108172B6BFF35F8F27702C
S2140811102B889BB23278D2B221B901212170BFF355
S2140811205F8F62B6154931F81210994207D8144BEA
S2140811301B7813F0FF0FE5D10020BDE8F08703EB1E
S2140811408212104911F802A040EA0A0A01339BB23B
S2140811502B8040460C4B9847B9F1000F03D04FEA56
S2140811600A20C146CEE75046BDE8F087300D072076
S214081170B0000720D40D0720E00D0720C80D072073
S214081180DC0D0720F40D07202D0F080008B50020F9
S214081190014B984708BD00BFE110080010B4EFF3F4
S2140811A0108472B6BFF35F8F0022174B1A70174B66
S2140811B01978C9B2164A32F81130D1F1010138BF90
S2140811C0002132F81100402B10D1124A127812F082
S2140811D0FF0F0BD1104A127812F0FF0F06D101222A
S2140811E00D4B1A70094B1970402000232CB90121A9
S2140811F0054A1170BFF35F8F62B61844C0F18000CD
S2140812005DF8044B704700BFB00007203C0D072070
S214081210400D0720E40D0720780E072008B5034B7D
S2140812209847003018BF012008BD00BF9D11080070
S21408123008B50020014B984708BD00BF1D120800DE
S2140812402DE9F84F884615461F4B9B79092B08BF92
S2140812505500DFF88CA00020D04738B91B4B1B7808
S21408126013F0FF0FF7D12846BDE8F88FEFF3108B81
S21408127072B6BFF35F8F0023154A1370154B1E789E
S214081280F6B2DFF8609039F81670C7F14004A54248
S21408129038BF2C4607EB86130F48184441462246AB
S2140812A00E4B9847274429F816705B462BB901233E
S2140812B0074A1370BFF35F8F62B6A0442D1BCAD1CE
S2140812C00020BDE8F88F00BF300D0720DC0D072092
S2140812D0B00007203C0D0720480D0720EBD6080075
S2140812E01D120800400D072008B503460A460020D0
S2140812F01946014B984708BD411208000F4B1B685A
S2140813001B685A881A4403781844904210D24378C7
S214081310042B0FD08B4205D170474378042B0BD093
S2140813208B420AD0037818449042F6D300207047C0
S214081330002070470020704700207047840E072062
S21408134008B5034B987800F07F00024B984708BD15
S21408135078640720A125080010B4164B1B7803B341
S214081360154B1B681B681A7982421CD9134A1360EE
S2140813705C881C44A34218D25A78042A09D19A7861
S214081380824206D1DA788A4203D10C4A13600120D9
S2140813900CE01A781344A342EED3084A13600020E0
S2140813A004E0002002E0002000E000205DF8044B86
S2140813B0704700BF8A0E0720840E07208C0E072071
S2140813C02DE9F84304460021124B98478046E8B1B9
S2140813D0114B1B685B6853F82490D9F80C30984773
S2140813E0014620460B4B9847804678B10B4B1C6845
S2140813F005260B4D0B4F20463146A847044610B12C
S2140814008078B847F7E7D9F8043098474046BDE8EB
S214081410F88300BF59130800840E07208C0E072097
S214081420FD120800052608002DE9F0418046104BFD
S21408143098470346C8B10F4B1C6805260E4D0F4F3C
S21408144020463146A847044638B18078E178A28815
S214081450B84703460028F3D107E0094B1B685B68CA
S21408146053F828301B68984703461846BDE8F081AD
S214081470591308008C0E0720FD1208000D290800D5
S214081480840E072008B5014B984708BD691D08005B
S21408149070B50D4B1B7883B10C4B1B681B681B790A
S2140814A05BB100240A4E094D2046B0470134E4B229
S2140814B02B681B681B79A342F6D80023024A1370D0
S2140814C0044A138070BD00BF8A0E0720840E0720CA
S2140814D0C1130800880E072038B50C4B1B789BB143
S2140814E00B4B1B681A68127972B10024084D5B68AA
S2140814F053F824301B6903B198470134E4B22B68CB
S2140815001A681279A242F2D838BD00BF8A0E0720A0
S214081510840E07202DE9F041774B00229A811A6144
S2140815205A611B7813F0800F00F0E681724AD28861
S214081530002A40F0E581DBE113F01F0367D16E490E
S214081540497806290DD0082957D000295FD1022AE4
S21408155005D16A4802216A4B9847012474E10024A1
S21408156072E1654B5A88130A013B0E2B3BD8DFE81D
S21408157003F0080F2A3A3A3A3A3A3A3A3A3A3A3AAC
S2140815802200604B1B68184619785D4B984721E087
S214081590D2B25C4B1B685B7C934226D9594B5B687E
S2140815A053F8323018465988554B9847524B9B6823
S2140815B002225A700EE0534B9B68C3B118465988EE
S2140815C04F4B984706E012F0FF0F12D14E48042101
S2140815D04B4B9847484BDA889B8993420BD9464B26
S2140815E09A81012430E100242EE100242CE1002415
S2140815F02AE1002428E1012426E1012A05D14348EE
S21408160001213F4B984701241EE100241CE1012BD1
S2140816102AD1394949780A2926D1012A1ED13B4BB5
S2140816201B78EBB1344B1D79394B1E6833681B7930
S214081630AB4217D928460021364B9847044600285F
S21408164000F00281736853F82530DB689847324B00
S2140816501870184601212A4B9847F5E00024F3E055
S2140816600024F1E00024EFE0022B40F0EF80224B4C
S2140816705B78002B40F0E380022A0BD11E4B1879CA
S214081680264B9847264B1880184602211C4B98472D
S2140816900124D9E00024D7E013F01F0340F084802B
S2140816A0154A5278013A082A7ED8DFE812F0130065
S2140816B07D00CA007D0009007D007D007D003D009C
S2140816C00D4BDB8823B9174A0B4B1A610124BBE084
S2140816D00024B9E0084BDB8853B9074B5B88012B1D
S2140816E008D1064B1A8822F002021A800124ABE0C1
S2140816F00024A9E00024A7E078640720880E0720C5
S214081700F92508003C000720380007208A0E072025
S214081710840E0720591308008B0E07205D26080044
S214081720800E072041130800794BDB88002B31D147
S214081730784B984700282FD0754B9A78764B1B68BD
S2140817405B7C9A422ADC754B9847714B9B78744AA7
S21408175013702BB303F10053013B6F4A526802EB38
S214081760C3007049086052F833301B79D3B100259E
S2140817702F466D4E884628463946B0470446002808
S21408178062D00135EDB2D8F800301B681B79AB4241
S214081790F1D859E0002457E0002455E0002453E02F
S2140817A0012451E001244FE0012B1CD1584A5278FD
S2140817B00B2A18D1564BDB888BB9594B1B7883B14B
S2140817C0534B1D795E882846584B98470446002890
S2140817D03AD02846F1B2544B9847044634E00024E1
S2140817E032E0002430E0022B30D1494B5B78012BE5
S2140817F002D0032B10D026E0454BDB8843B9444B78
S2140818005B883BB9424B1879494B984704461BE01E
S214081810002419E0002417E03D4BDB885BB93C4BFD
S2140818205B8853B93A4C2079424B98472079424B0B
S2140818309847044608E0002406E0002404E0002454
S21408184002E0002400E00024002C5DD1304B1B7819
S21408185003F01F03012B1ED1314B1B78DBB12C4B39
S2140818601C79304B1D682B681B79A34213D9204678
S2140818700021324B984770B16B6853F82450EB68D8
S2140818809847014620462D4B984720B1AB689847A5
S2140818900446002838D11E4B1B7803F01F03022B82
S2140818A028D11F4B1B78FBB11E4B1B681A68127990
S2140818B0E2B10025214FDFF86C805B6853F825609D
S2140818C0F368984701462846B8470446E0B1B36827
S2140818D098470446C0B90135EDB2D8F800301A6802
S2140818E01279AA42E9D80FE000240DE000240BE0A4
S2140818F0002409E0002407E013F0600FA6D1CBE629
S21408190013F0600FA2D117E62046BDE8F08100BFAD
S21408191078640720C92508003C00072091140800B1
S2140819208A0E0720840E072029140800C113080011
S2140819305D270800E92A08007126080059130800E0
S214081940034658BB184A12782AB3EFF3108172B6CA
S214081950BFF35F8F154A1070154A9078013890705B
S214081960C9B90121114A1170BFF35F8F62B612E040
S214081970EFF3108172B6BFF35F8F00200B4A10702A
S2140819800B4A90780130907029B90121074A1170E6
S214081990BFF35F8F62B6044A13707047024A127824
S2140819A0002AE5D0F7E700BFDC0E0720B0000720C6
S2140819B070640720EFF3108372B6BFF35F8F0021C1
S2140819C00A4A117001210A4A116023B9074B197097
S2140819D0BFF35F8F62B60222064B1A60064A0023E0
S2140819E0136153619381054A13707047B00007204E
S2140819F020C20A4060C10A4078640720DD0E07202E
S214081A000522034B1A704FF40022024B1A607047E7
S214081A10DD0E0720F0C10A4003220D4B1A70EFF3C3
S214081A20108072B6BFF35F8F00220A4B1A700A49FD
S214081A3001220A60094B1A6008220A601A6028B94F
S214081A400122044B1A70BFF35F8F62B6704700BF5F
S214081A50DD0E0720B000072060C10A40F0C10A402A
S214081A6008B5024B1B6903B1984708BD7864072080
S214081A7038B5EFF3108372B6BFF35F8F0021484A7C
S214081A8011700121474A116023B9454B1970BFF3FD
S214081A905F8F62B6444B1B78032B04D1434B9847A1
S214081AA0434B984738BD434B1B88434A9489E41AEE
S214081AB0A4B2002C2ED1414A11880B449BB2138045
S214081AC03D4AD2889A4202D03D4B1B78C3B10422C5
S214081AD0354B1A70EFF3108272B6BFF35F8F002192
S214081AE02F4B1970102337490B6090310B60002A72
S214081AF054D101222A4B1A70BFF35F8F62B638BDE5
S214081B002D4B5B696BB1984758B10022294B1A8058
S214081B10294B9C893F2C04D90022294B1A70402453
S214081B2002E00122264B1A70234B9A68214B1D8827
S214081B30EFF31080D0F1010038BF002072B6BFF373
S214081B405F8F0021164B19701F4B1B6813F0020F8E
S214081B5001D15CB913E028B10122114B1A70BFF30A
S214081B605F8F62B60422104B1A7038BD2A44174B92
S214081B7012F8011B03F8011BD9B2A142F8D32C4472
S214081B800C4B1C8001230F4A13609032136028B157
S214081B901A46034B1A70BFF35F8F62B638BD00BF94
S214081BA0B000072020C20A40DD0E0720611A080090
S214081BB0B5190800DE0E072078640720DA0E07201D
S214081BC0E00E072060C10A4030C10A400000182015
S214081BD010B50346047D14F0010F10D0047D6FF392
S214081BE000040475046854B1054850F8220010F43F
S214081BF0807F18BF42F0800208469968A04710BD4B
S214081C0000C10A40F8B50246411E01EB41004D4BA3
S214081C1003EBC003187D10F0010F00F09280D8681F
S214081C209C68A04267D0241AB4F5803F92BF260469
S214081C304FF480340026444D55F8227017F4807F00
S214081C400FD055F82250C5F30215082707FA05F5F0
S214081C50013D2C4216D03E431D7D6FF341051D7590
S214081C6010E055F82270C7F3C127012F08D155F8A0
S214081C702250C5F30215082707FA05F5AC4201D825
S214081C8046F01406314D05EB02155F683844686067
S214081C90EFF31080D0F1010C38BF4FF0000C72B68D
S214081CA0BFF35F8F00272A480770E86810F0100F08
S214081CB016D146F02106AE60DA682244DA601C6166
S214081CC04FF0007303FA01F1224B9961BCF1000F43
S214081CD037D001221E4B1A70BFF35F8F62B6F8BD6D
S214081CE0BCF1000F05D0012019490870BFF35F8FBB
S214081CF062B6D9689960144951F8221011F4807FA9
S214081D001BD0197D11F0020F17D00121124B43F892
S214081D102210303B53F8223013F4803F1CBF0F4B81
S214081D2043F8221001210E4B43F822104FF480533B
S214081D3003FA02F2074B9A61F8BD18460021094BD0
S214081D409847F8BD900E072000C10A4000C30A4015
S214081D50B000072000C00A4060C10A4090C10A408F
S214081D60F0C10A40D11B080010B5EFF3108472B614
S214081D70BFF35F8F00224E4B1A7028204D4B9847B2
S214081D804D4B98474D4B502283F828234FF48072CA
S214081D905A604FF480204A4B98474A4BD3F800289D
S214081DA022F08072C3F80028D3F8002842F00072A8
S214081DB0C3F80028D3F8002822F08072C3F8002859
S214081DC0D3F8002842F48052C3F80028D3F8002835
S214081DD042F40042C3F800281A6822F480521A60B7
S214081DE01A6842F440621A60D3F8002822F4804247
S214081DF0C3F800281A46D2F8043813F4804FFAD0ED
S214081E00314B1A7D02F0FE026FF382021A7593F8C0
S214081E102C2002F0FE026FF3820283F82C2093F83F
S214081E20442002F0FE026FF3820283F84420254B1A
S214081E300222C3F80828D3F8043813F4006F1CBF2E
S214081E40204BC3F80C281F4BD3F8002842F0020298
S214081E50C3F80028D3F8002842F48042C3F80028C4
S214081E601A4B1B78CBB90122184B1A700022184B54
S214081E701A70EFF3108272B6BFF35F8F00210C4B17
S214081E801970144BD9780131D9704AB90122084B18
S214081E901A70BFF35F8F62B602E000200E4B9847B9
S214081EA02CB90122024B1A70BFF35F8F62B610BDC1
S214081EB0B000072029320800652D080000E100E080
S214081EC0A132080000C00A40900E0720D80E07204E
S214081ED0DC0E0720706407204119080038B5EFF3B8
S214081EE0108572B6BFF35F8F0022194B1A70012057
S214081EF0184B9847184BD3F8002822F48042C3F8AA
S214081F0000281A46D2F8043813F4804FFAD0124B39
S214081F101A6822F480721A6008249C61012199616B
S214081F2010229A61042098619C609860022098604C
S214081F30D9609A60D3F8002842F48042C3F8002893
S214081F4025B9034B1970BFF35F8F62B638BD00BF63
S214081F50B00007204119080000C00A4008B50A4B1F
S214081F60D3F8002822F48042C3F800281A6842F4FE
S214081F7080721A60D3F8002842F48042C3F800281A
S214081F800020024B984708BD00C00A4041190800C7
S214081F902DE9F84F8C4B984760B98C4B5B6813F06B
S214081FA0010F07D172B6BFF35F8F0022884B1A70F5
S214081FB0BDE8F88F854B5B6813F0040F0CD0834B95
S214081FC004229A60D3F8043813F4405F40F0D982AC
S214081FD0804B9847BDE8F88F7C4B5B6813F0020F80
S214081FE006D00222794B9A607A4B9847BDE8F88F5C
S214081FF0764B5B6813F4805F00F0B282764B102253
S2140820001A6008221A60F03B1B6813F0040F63D0AE
S214082010724B1B781BB1724B9847724B9847724BA2
S2140820201B68C3F30A53082B06D0704B9847042244
S2140820306F4B1A60BDE8F88F6E4B6F4D6F4C70484B
S21408204013F8011B5A1911558342F9D16D4B98475D
S21408205030B9664B98470422654B1A60BDE8F88F7E
S2140820600422634B1A60644B93F90030002B0BDA9A
S2140820700023654A1380654A13800222574B1A705C
S214082080634B9847BDE8F88F5B4BDB881BB9614B01
S2140820909847BDE8F88F00235B4A13805B4A138095
S2140820A001224E4B1A701022514B1A60EFF3108320
S2140820B072B6BFF35F8F0021454A11701021564A49
S2140820C01160002B40F05D820122414B1A70BFF36D
S2140820D05F8F62B6BDE8F88F434B1B6813F0010F9D
S2140820E008D04E4B1B6813F0010F03D0484B984797
S2140820F0BDE8F88F3C4B1B6813F0020F00F0B38066
S214082100364B1B78012B0CD0022B01D0042B02D1A6
S214082110334B984701E0354B9847324B9847BDE814
S214082120F88F314B1868C0F30A50334B9B89374AEF
S214082130148822189342AEBF80B2C4EB030398B249
S2140821402D4B9A682244A0B12A4B13F8011B02F8BB
S214082150011BD9B28142F8D30444A4B22B4B1C808D
S214082160402806D1244BDA88274B1B8823449A42FA
S21408217013DC214B9C815B6943B1984730B91B4BF4
S214082180984702221A4B1A60BDE8F88F0222184BAD
S2140821901A60204B9847BDE8F88F174B9B89A342D7
S2140821A046D1154B5B6933B9104B98470222104B42
S2140821B01A60BDE8F88F984790BB0C4B98470222E8
S2140821C00B4B1A60BDE8F88FB532080000C00A400D
S2140821D0B0000720D914080020C20A40DD0E0720E8
S2140821E0611A0800B519080030C10A40011A08002B
S2140821F060C10A400000182078640720FFFFE7DF68
S2140822000800182015150800DA0E0720DE0E07202D
S214082210711A0800191A0800F0C10A40C0C10A401D
S214082220AE4AAF4B188811880144118000221A80E4
S214082230AC4B02221A6010221A60EFF3108372B6B3
S214082240BFF35F8F0021A84A11701021A74A1160BA
S214082250002B40F096810122A34B1A70BFF35F8FC4
S21408226062B6BDE8F88FA24B1B6813F0080F13D0B0
S21408227008229C4B1A60303B1B6813F0010F40F095
S21408228080819C4B1B78032B40F07B814FF4002207
S214082290964B1A60BDE8F88F954B1B6813F0100F25
S2140822A000F05E8110228F4B1A60303B1B6813F0DB
S2140822B0020F40F066818F4B1B78012B03D18E4BA3
S2140822C09847BDE8F88F042B40F05B814FF4002256
S2140822D0864B1A60BDE8F88FDAB29C46A2462F698C
S2140822E05E1E08FA06F63E4218D06F683E4215D0C3
S2140822F0824B03EB0213D96811F0010F40F04181BD
S2140823007F494E61DB681B0C03D0E168CB1AE3609B
S214082310A36010467B4B9847BDE8F88F2E6909FAEC
S2140823200CFC1CEA060F46D04FEA830B01F1900717
S214082330D1F8906016F0010F14D00E6816F0010F51
S21408234010D0714B01214BF8031066484BF800106B
S2140823504FF480414BF80310504600216B4B9847CA
S214082360BDE8F88F3A6812F4805F24D00A6812F441
S214082370405F20D14FF48052634B4BF80320A3F5FF
S2140823800873C3F814C09AF814306FF382038AF8F7
S21408239014305F4B5BF8032022F400724BF80320DE
S2140823A0F0334FF400224BF803204FF480224BF80A
S2140823B00320BDE8F88F013318340431042B8BD181
S2140823C0D8E008224E4B9A600546002401274F4E57
S2140823D00134E4B2284639462246B0471835032C5D
S2140823E0F6D14C4B9847464B1A6822F07F021A6083
S2140823F01A6842F080021A60454A116821F4CB51E7
S21408240021F01C0141F030011160116841F0020111
S2140824101160DA6942F00102DA61EFF3108272B6EF
S214082420BFF35F8F0021304B1970304B04211960C1
S214082430022119604FF48051A3F5F87399612AB9FF
S2140824400122294B1A70BFF35F8F62B6324B98474A
S214082450BDE8F88F2A4B1B6913F0010F1AD0284BDA
S2140824605B6813F0010F15D0254BD3F8002822F42B
S2140824708042C3F8002801225A6110229A61D3F8D4
S214082480002842F48042C3F800280020234B9847CF
S214082490BDE8F88F1A4B1B6913F0100F40D0184B85
S2140824A05B6813F0100F3BD0154BD3F8002822F4C6
S2140824B08042C3F8002803E05A6812F0010F04D1DE
S2140824C0D3F8042812F4804FF6D00D4B10225A6128
S2140824D001209861114B9847BDE8F88FDA0E07205F
S2140824E0DE0E072060C10A40B0000720F0C10A408F
S2140824F030C10A40DD0E0720191A080000C30A403A
S21408250000C00A40051C080020C20A40D11B08006B
S21408251000C10A4091140800B519080041190800BE
S214082520194BD3F8043813F0020F2AD0164BD3F8F9
S214082530002822F48042C3F800280222C3F808289C
S214082540D3F8002842F48042C3F80028D3F80438A9
S21408255013F4006F14BF0D4B0D4B9847BDE8F88F6A
S2140825600C4804460C490123074D4FF000784FF4F9
S2140825708059B1E6044B5B6813F0080F3FF46AAF66
S2140825801FE7BDE8F88F00BF00C00A40DD1E080040
S2140825905D1F0800900E072034C10A4000207047CF
S2140825A0084B1A6822F080021A601A6800F07F004A
S2140825B022F07F0202431A601A6842F080021A600C
S2140825C0704700BF00C00A40024B186800F07F0042
S2140825D0704700BF00C00A40024B186AC0F3CA0022
S2140825E0704700BF00C00A40024B186AC0F30D00CF
S2140825F0704700BF00C00A40014B98609981704739
S2140826007864072070B500F00F02032A1FD8104B15
S214082610D869012101FA02F420EA0400D86103F51A
S214082620807353F8220020F0020043F82200541E5C
S214082630084D04FA01F6301905EBC000064B98471A
S214082640344405EBC4052B7D6FF382032B7570BDF0
S21408265000C00A40900E0720D11B080000F00F00AB
S214082660024B53F82000C0F3C0407047C0C10A4070
S21408267030B400F00F03032B56D8324A52F8232002
S21408268012F4002F52D15A1E02EB42022E4901EBD9
S214082690C202117D11F0040F4AD111F0010F49D181
S2140826A0EFF31081D1F1010138BF002172B6BFF3F4
S2140826B05F8F0025254C257010F0800F1BD024480E
S2140826C050F8230010F4405F15D0107D40F0040049
S2140826D010754FF480521F4840F8232002FA03F37F
S2140826E0A0F5F870836139B301222270BFF35F8FBB
S2140826F062B6012023E0184A52F8230020F400703E
S21408270042F823004020603242F823004FF40020AD
S214082710903242F8230089B101220C4B1A70BFF39D
S2140827205F8F62B601200AE0002008E0012006E07C
S214082730012004E0002002E0012000E0012030BC77
S214082740704700BFC0C10A40900E0720B00007209F
S21408275030C10A40F0C10A4000C10A4038B500F04E
S2140827600F00032840D82749431E03EB4303DC0029
S2140827700B191A7D12F0040F3AD01A7D6FF38202F5
S2140827801A754FF48052204D45F820208240A5F552
S21408279008756A61820005F5E07555F8200010F4A2
S2140827A0002F15D01948105810F0400F06D04025B5
S2140827B0174815504FF48025903015504FF40025D3
S2140827C011481550A0F59070155845F40075155029
S2140827D01A7D12F0010F09D01A7D6FF300021A75E0
S2140827E00B599847012038BD002038BD012038BD58
S2140827F08200084D55F8200010F4002FD2D1012091
S21408280038BD00BF900E072020C20A4030C10A40DB
S21408281060C10A40C0C10A402DE9F04100F00F002F
S21408282003285AD8344CE46901258540254257D0F8
S214082830324C54F8204014F4002F54D1304E441E25
S21408284004EB4404E5007419277D17F0040F4DD1F6
S214082850EFF31087D7F1010838BF4FF0000872B6BB
S214082860BFF35F8F4FF0000C264F87F800C0277D18
S21408287017F0010F0BD0B8F1000F3AD00122214B08
S2140828801A70BFF35F8F62B60020BDE8F081277D1F
S21408289047F001072775B8F1000F07D04FF0010E73
S2140828A0184F87F800E0BFF35F8F62B66260A360D8
S2140828B00022E2602261069A725121B9D3F101031F
S2140828C038BF002300E00123227D63F3410222750E
S2140828D00D4B98470120BDE8F0810020BDE8F08147
S2140828E00020BDE8F0810020BDE8F0810020BDE8AA
S2140828F0F0810020BDE8F08100C00A40C0C10A404F
S214082900900E0720B0000720051C08002DE9F04FA0
S21408291083B000F00F04032C00F2C7806C4BDB6911
S21408292026460125A5401D4240F0C18011F003034C
S21408293000F0BF80022B02D9032B02D0B9E0012792
S21408294000E000274FEA840C624D55F8243023F443
S214082950CB5323F01C03C90201F4C05100F08000D9
S21408296000280CBF00204FF48070A2F580681FFA7C
S21408297088F8B8F57C4F04D3082A05D95200013ADE
S21408298003E040F2FF7200E00F22B2FA82F241EA58
S21408299087070743C2F11C0247EA021222F4D062F4
S2140829A022F00302D204D20C13434CF80530012758
S2140829B007FA06F6B7B2022C00F28180464A0323CD
S2140829C043480126C56906FA03F1294209D00F4390
S2140829D0BFB2C56925EA0101C161116821F002018B
S2140829E01160013B043AD9B2A142EBD867E047FA36
S2140829F004F313F0010F52D0631E03EB430C08EBED
S214082A00CC052B7D03F001026FF300032B75A100A4
S214082A1001EB060A56F8243043F0020346F8243041
S214082A202B4BD8694FF0010B0BFA04FB4BEA00005E
S214082A30D86159F8243013F4802F0FD12B68002B57
S214082A4039D0DAF8002012F4807F18BF44F08004EA
S214082A500120E96822469847002036E056F82430D8
S214082A6043F4007346F82430CAB1EA682B69D31ACF
S214082A70EB608A5912F4807F14BF44F08000204629
S214082A80297DD5F804E0AD6858F83C200092C1F3DB
S214082A9040010EEB0302EB1A104DA84768B101344B
S214082AA0E4B2042CA3D101200FE000200DE00020A2
S214082AB00BE0002009E0002007E0002005E0DFF832
S214082AC02080044EDFF81C9091E703B0BDE8F08F35
S214082AD000C00A4000C10A400CC10A401928080074
S214082AE0900E072030C10A4070B500F00F02561E3F
S214082AF04FF00071B140154B5961154901EB0211B1
S214082B0000248C604FF480519140596110F0800F7A
S214082B1012D093000F4818440F4C1C444FF400552D
S214082B200E49194404E025600B6813F4005FFBD1D6
S214082B30036813F4405FF6D106EB4606084800EB38
S214082B40C6000121074B984770BD00BF00C00A4069
S214082B5000C30A4030C10A40F0C10A40C0C10A405A
S214082B60900E0720D11B08000F4B994219D8490030
S214082B70B2FBF1F2043AFF2A07D9002301335208C0
S214082B80FF2A03D9072BF9D100E00023110289B2E6
S214082B901B0403F4E0230B43D2B21A43026100205D
S214082BA070470120704700BF801A060038B50446F3
S214082BB00D464FF0FF338362036A80230360036B7E
S214082BC008230360202303600423036049682A68F7
S214082BD0054B9847012814BF002001206B7A012B6B
S214082BE004BF4023236038BD692B0800F0B40446B0
S214082BF0CB688D68002B40D00022426048680002EF
S214082C0000F4407040F480500E7C360406F4FE064D
S214082C1030436060E2604A685AB10878012AC4BF47
S214082C204E7846EA0020022A04DD8A7842EA002026
S214082C3000E00020E060012B03D10322226001217E
S214082C4021E00122226000211DE0226A12F4807F22
S214082C5015D1012B02D109B92760314612F0020FAF
S214082C6003D0226B2A70013B0135002BEDD1236A75
S214082C7013F0010FFBD0236A0CE001200AE00520C0
S214082C8008E0052006E0226A12F48070F9D10227CF
S214082C900126DEE7F0BC704770B40346CA68886849
S214082CA0002A3FD000245C600E7C360406F4FE063C
S214082CB04D682D0205F4407535435D60DC604C6850
S214082CC05CB10D78012CC4BF4E7846EA0525022C67
S214082CD004DD897841EA052500E00025DD600BE083
S214082CE0196A11F4807F1FD111F0040FF8D010F87C
S214082CF0011B5963013A07D0196A11F4807F15D170
S214082D0011F0040FF3D1EBE71A6A12F480700FD1B2
S214082D1012F0040FF8D002221A601A6A12F0010F95
S214082D20FBD006E0012004E0052002E0052000E0D4
S214082D30052070BC704700BF00B587B0002306AA00
S214082D4002F8153D0392012204928DF814108DF8AE
S214082D500430029301A9024B984707B05DF804FBBC
S214082D60992C080008B5044B98470020034B984751
S214082D70034B984708BD00BF11320800813208008F
S214082D809532080010B50D480D4B984700203E2197
S214082D900C4B98470C4CA0470028FCD00B4B984788
S214082DA00B4A0C4B9A620C4CA0470028FCD010200B
S214082DB00A4B98470A4B984710BD00BF00BD01054F
S214082DC0953408008D310800E1310800F13108001B
S214082DD0013F0D2000060E40013208002931080088
S214082DE07933080010B54FF400421B4B5A600B208D
S214082DF01A4CA0470C20A0470D20A0470E20A0473D
S214082E003B204FF06051164CA04755204FF06051BC
S214082E10A04756204FF06051A04768201149A047A8
S214082E205C201149A04711484FF440714FF00062EA
S214082E300F4B984711204FF00061A04712204FF023
S214082E400061A0472B204FF00061A0472A204FF0D2
S214082E500061A04710BD00BF501A0E402932080076
S214082E60192F08007900002801000028000E0E40DF
S214082E70ED2F08004264B1F1805F16D004D8C1B1C6
S214082E80B1F1006F0AD013E0B1F1405F11D0B1F193
S214082E90605F0ED0B1F1205F0AD17047036F016FF3
S214082EA00B4023EA0203036702E0036F134303673A
S214082EB042607047416412F0010F14BF4166016614
S214082EC012F00A0F14BF0162416212F0020F02D01C
S214082ED0C0F8801004E012F0080F18BFC0F8801081
S214082EE041610160704700BF10B44164019C0CB199
S214082EF0416600E001660BB1016500E041650AB174
S214082F00016300E04163016101605DF8044B7047AE
S214082F10C06C7047806C704770B582B00D46440927
S214082F2004F5001404F20774660201F0F044B4F1E4
S214082F30205F30D006D8B4F1006F0AD0B4F1805FB5
S214082F4018D049E0B4F1405F30D0B4F1605F2DD0BE
S214082F5042E000F01F000124844030464FF0006134
S214082F6022461F4B984715F0010F14BF7466346647
S214082F70012032E000F01F000124844030464FF064
S214082F8080512246164B984715F0010F14BF7466F9
S214082F903466012021E000F01F010124304604FABF
S214082FA001F12A460F4B9847204616E000F01F010D
S214082FB0012405F0605205EA04030093304604FA3B
S214082FC001F1B2F1605F14BF00220122C5F380034D
S214082FD0054DA847204600E0002002B070BD00BF9F
S214082FE0752E0800B52E0800E92E0800F0B583B047
S214082FF007460E46154602F0F044B4F1205F26D088
S21408300006D8B4F1006F0AD0B4F1805F13D034E06C
S214083010B4F1405F1FD0B4F1605F1CD02DE04FF0D4
S21408302000613246164B984715F0010F14BF7E66AE
S2140830303E66012022E04FF080513246104B9847FA
S21408304015F0010F14BF7E663E66012016E00D4B94
S2140830509847012012E005F0605205F0010300933E
S21408306038463146B2F1605F14BF00220122C5F32C
S2140830708003054CA047012000E0002003B0F0BD07
S214083080752E0800B52E0800E92E0800F8B5044687
S2140830900E460E4B9847054620460D4B984705406A
S2140830A012D00C4C54F80C3CB3420AD154F8081C05
S2140830B0294206D023683046984754F8083C25EA43
S2140830C003051034002DEDD1F8BD00BF112F080000
S2140830D0152F0800F00E072008B502480B21024BF2
S2140830E0984708BD000E0E408D30080008B5024807
S2140830F00C21024B984708BD00100E408D30080082
S21408310008B502480D21024B984708BD00120E402C
S2140831108D30080008B502480E21024B984708BDB6
S21408312000140E408D300800174B1A6B22F0700200
S214083130104318639B6E13F0080F09D14FF4006311
S214083140114901E0013B19D08A6E12F0080FF9D038
S2140831500D4B1A6B22F0030242F002021A63986EB5
S21408316010F008000CD14FF40063074901E0013B5A
S21408317008D08A6E12F0080FF9D070470120704701
S214083180002070470120704700060E4038B11149EC
S2140831900B6A114A1A40114B13430B6270470D4ACB
S2140831A0136A23F45C1323F0030343F45C1343F01D
S2140831B00103090289B20B431362936E13F0010FE1
S2140831C0FBD0044A136A43F09B7343F480331362BC
S2140831D0704700BF00060E40FCFFC8FE020037011D
S2140831E0024B986E00F48030704700BF00060E4011
S2140831F04FF00052014B9A62704700BF00060E401F
S214083200024B986E00F00200704700BF00060E40A2
S2140832104FF44412034BDA611A46936E13F0400FCC
S214083220FBD0704700060E402C2820D81F280DD843
S214083230124B9A69012383401A40934219D00123FE
S21408324003FA00F00D4B1861002070470B4BD3F8BB
S21408325008212038012383401A4093420BD00123CB
S21408326003FA00F0054BC3F8000100207047012060
S2140832707047002070470020704700BF00060E40C9
S214083280000200F4706242F00102014B9A63704734
S21408329000060E402022014B1A60704700060E40BA
S2140832A0034B1A6FC0F3120002431A67704700BF39
S2140832B000060E40024B187880F00100704700BFE9
S2140832C0540F0720FEE700BF10B51E4B1E4A9A4251
S2140832D003D01E4B1B4A9A4204D31D4B1D4A9A42E2
S2140832E00FD31AE01C4B1D4CE41A24F003040434D4
S2140832F00023144814495A581A500433A342FAD1E2
S214083300EBE7174B1749C91A21F003011A1D114498
S214083310002243F8042F8B42FBD1134A22F0604365
S21408332023F07F0311498B6002F16042B2F5801FDB
S21408333003D28A6842F000528A600D4B98470D4BBC
S2140833409847FEE7000007201C7909008009072037
S2140833504065072080090720040007208309072006
S2140833607C0907203B6507200000080000ED00E008
S21408337015D2080039AC08003E4B1B6B03F003035C
S214083380032B5FD8DFE803F0020E2B2B3A4B5B6962
S21408339013F0800F14BF4FF400424FF4FA42374B35
S2140833A01A604FE0334B1B6A13F0807F03D0344A11
S2140833B0324B1A6046E0334A304B1A602D4B1B6A74
S2140833C003F07003102B02D0202B04D03AE02E4ACC
S2140833D02A4B1A6036E02A4A284B1A6032E0254BF8
S2140833E01B6A13F0807F03D0254A244B1A6012E02C
S2140833F0244A224B1A601F4B1B6A03F07003102BDB
S21408340002D0202B04D006E01F4A1C4B1A6002E0AC
S2140834101B4A1A4B1A60174B1B6B03F00303022B4D
S2140834200DD1144B986A996A144BC0F30A401A686F
S21408343000FB0222C9B2B2FBF1F21A6002E0134A9C
S2140834400E4B1A600B4B1B6B03F07003702B07D1E7
S2140834500A4B1A680E49A1FB020252081A60704706
S214083460044B196B054BC1F302111A68CA401A605F
S214083470704700BF00060E40101A0E40B400072022
S214083480001BB70000093D0000127A00001C4E0E13
S214083490ABAAAAAA1B4B984206D800231A4A13605E
S2140834A002F5007213607047184B984207D84FF41D
S2140834B08073154A136002F5007213607047144B48
S2140834C0984207D84FF400730F4A136002F500724B
S2140834D0136070470F4B984207D84FF440730A4A58
S2140834E0136002F50072136070470B4B984294BF46
S2140834F04FF480634FF4A063034A136002F500722A
S21408350013607047BFEA2101000A0E407FF0FA02F6
S214083510FF8FD003FFB3C4047F4A5D05094B1B68C1
S21408352013B9094A074B1A60064B1B681A1807494D
S214083530914204DB1046034A1060184670474FF065
S214083540FF307047580F072040850720FC7F08206B
S2140835504FF0FF30704700BF4FF400534B60002019
S214083560704700BF012070470020704708B5014625
S2140835700148024B9847FEE71C5F090061D2080025
S214083580704700BF4FF0FF30704700BF00B587B0E8
S2140835900023019305938DF80400012302930391F9
S2140835A0049269238DF81430034801A9034B984701
S2140835B007B05DF804FB00BF00C00840992C08005F
S2140835C000B587B00023019305938DF80400012306
S2140835D002930391049269238DF81430034801A9D5
S2140835E0034B984707B05DF804FB00BF00C00840CF
S2140835F0ED2B080010B584B00023039349F640432A
S214083600029350238DF80C3004AC064B44F80C3D5E
S2140836101620054B984705482146054B984704B0A1
S21408362010BD00BF00BD01052932080000C00840D3
S214083630AD2B080000487047385F0900013820287D
S21408364038D8DFE800F013273315373737372F31E8
S214083650233737172119291D1F25372D37372B1BD9
S2140836603735373737113900022070470020704742
S21408367001207047042070470520704706207047D1
S2140836800720704708207047092070470A207047AF
S2140836900B2070470C2070470D2070470E2070478F
S2140836A00F2070471020704711207047122070476F
S2140836B013207047142070470320704710B584689D
S2140836C0084611461A46A04710BD00BF10B5C46884
S2140836D0084611461A46A04710BD00BF08B5014661
S2140836E03030024A024B984708BD00BFF53608003E
S2140836F0BD9908002DE9F0419AB0074614461D46C4
S214083700209E132974D8DFE811F01D00C00063005E
S21408371066009F007E0033003D004A000301ED006E
S214083720F000DC00400014001700D100D40056005A
S2140837301A004FF019082AE04FF0160827E04FF055
S2140837401C0824E006A8002150227E4B98474FF01C
S21408375001080AAB30687168B26807C3219A137803
S2140837608DF84030E3E01A6806A859689047E6E006
S21408377006A800215022734B984730680A904FF0ED
S2140837801A08D4E04FF0120801E04FF0110806A816
S214083790002150226B4B984701230A93C7E006A8DE
S2140837A000215022674B98470AAB3068716803C3FC
S2140837B04FF01308BBE006A800215022614B98473B
S2140837C00AAB30687168B26807C34FF00308AEE00A
S2140837D04FF0200801E04FF0210806A800215022EB
S2140837E0584B98470AAB30687168B26807C39EE0C2
S2140837F006A800215022534B9847022052494122DE
S214083800524B98479BE006A8002150224D4B9847FC
S214083810EC4630687168B268F368ACE80F00306947
S2140838207169ACE803000AAB9DE8070083E8070067
S2140838300DAB03AA07CA83E80700219A13788DF808
S21408384040304FF0100872E006A8002150223D4B89
S2140838509847EC4630687168B268F368ACE80F00C1
S21408386030697169ACE803000AAB9DE8070083E895
S21408387007000DAB03AA07CA83E80700219A137846
S2140838808DF840304FF00E0851E006A8002150226F
S2140838902C4B98470AAB30687168B26807C3219A00
S2140838A013788DF840304FF0040840E04FF00908D0
S2140838B001E04FF00A0806A800215022214B98473D
S2140838C047E706A8002150221E4B98470AAB3068E7
S2140838D07168B26807C3219A13788DF840304FF0A4
S2140838E0020824E04FF00B0801E04FF0140806A881
S2140838F000215022134B9847219B18680E900DF113
S214083900280C30687168B268F368ACE80F000EE0FF
S21408391006A8002150220B4B98470DF1280C30685A
S2140839207168B268F368ACE80F004FF00F08CDF87E
S2140839301880CDE90845BB68002B7FF414AF1AB091
S214083940BDE8F08133D70800E85F0900E1AB08005E
S21408395010B529B90448C921044A054B054CA047A7
S2140839603030054B984710BD10600900CC6109003F
S21408397038600900B5CE08003594080070B582B0E6
S214083980044603202549264DA84704202549A8476C
S21408399020460DF10701244B9847054630B1012013
S2140839A022492A461E4B9847284635E09DF80720A8
S2140839B0531EDBB2FD2B06D901201D49184B98472C
S2140839C04FF0FF3028E003201A49154EB04704F19F
S2140839D030052846184B984704201849B04728460B
S2140839E0D4F82815D4F82C25154B9847044668B9FA
S2140839F02846144B98472846134B98472846134B97
S214083A00984704201249B047002005E001201149D4
S214083A102246034B9847204602B070BD4060090016
S214083A20E1AB080058600900513908006C600900CD
S214083A3090600900C060090049940800D460090035
S214083A40F9940800B19808002D950800A594080078
S214083A50F86009000C61090008B5303011469AB2C2
S214083A60014B984708BD00BFAD99080008B5A1F1FD
S214083A702003012B22D9A1F10F03042B20D90129F9
S214083A8020D0042920D01C2920D021F01003093B7F
S214083A90012B1DD916291DD08B1E012B05D90E29E1
S214083AA003D0142901D00B2916D130300C4B984777
S214083AB000280CBF6FF00A00002008BD002008BDD3
S214083AC0002008BD002008BD002008BD002008BD55
S214083AD0002008BD002008BD6FF00A0008BD00BF22
S214083AE0F147080038B5054614460846044B98477B
S214083AF0014605F130002246024B984738BD00BF04
S214083B003D360800ED9808002DE9F04105460024EA
S214083B10094EA046094F28462146B04718B92846F8
S214083B2021464246B8470134412CF4D105F130000D
S214083B30034B9847BDE8F0816D3A0800E53A08005F
S214083B40C998080038B5054604200949094B98471E
S214083B502846094B984704462846084B9847044386
S214083B6004D0012006492246024B9847204638BD15
S214083B7030610900E1AB0800093B08007D39080000
S214083B804461090070B504460D46184B984706462A
S214083B9028BBA5F12003012B04D96B1E012B01D9E4
S214083BA0042D1FD194F8C03023B102201049114BC0
S214083BB0984719E02046104B984704F130000F4B01
S214083BC0984700F00700072803BF012384F8C03091
S214083BD000264FF0FF362046094B984704E06FF062
S214083BE00A0601E06FF00A06304670BD6D3A080016
S214083BF060610900E1AB0800093B0800158F080062
S214083C00453B080038B5044615460846054B984710
S214083C100146054BA3FB050204F130009209034B4D
S214083C20984738BD3D360800D34D62102D990800D8
S214083C3008B5303091B2014B984708BD8599080001
S214083C4038B5054614460846044B9847024605F11B
S214083C5030002146024B984738BD00BF3D36080065
S214083C60D997080010B53030D1B21A46029B014CDD
S214083C70A04710BD4DA6080010B53030D1B21A4680
S214083C80029B014CA04710BD0DA6080070B584B075
S214083C9005461C46052A04D0072A1AD0032A27D127
S214083CA01CE000F130050846134B984706462846A0
S214083CB0314601AA114B9847284631462246104BF2
S214083CC0984704462846314601AA0E4B9847204690
S214083CD010E0303019780C4B98470BE00846064B36
S214083CE09847014605F130002246064B984701E002
S214083CF04FF0FF3004B070BD3D3608000597080049
S214083D004D9508005D960800B197080038B5054639
S214083D101C46052A04D0072A0CD0032A19D10EE01F
S214083D2008460D4B9847014605F1300022460B4BD6
S214083D30984738BD30301946094B984738BD08466D
S214083D40054B9847014605F130002246054B984733
S214083D5038BD4FF0FF3038BD3D360800C99508001D
S214083D60D1970800059708002DE9F04F83B00D4657
S214083D7017461E46044628B929489B21294A2A4B35
S214083D802A4CA04700214FF4A662294B9847D5F83D
S214083D9014B0D5F800A0D5F80490D5F80880EB68DC
S214083DA001932D69022D14BF002501252460214B9F
S214083DB06360A760C4F828650C9BC4F82C3504F12A
S214083DC030061D4B1B682BB11C48D8211C4A1D4BBE
S214083DD0164CA047304600214FF49F62144B984774
S214083DE0C4F830B0C4F834A0C4F83890C4F83C809E
S214083DF0019B23646564104B1E60012384F8A4327B
S214083E0084F8A83284F8AC3230460F4B98473046D0
S214083E1003210C220D4B984703B0BDE8F08F00BF76
S214083E2010600900CC5F09007C610900B5CE080067
S214083E3033D70800745F09003465072084610900D9
S214083E40585F0900B4610900A594080025440800D5
S214083E5070B588B00D460D4902910D490391696900
S214083E600491A9690591E969069100F10C04079483
S214083E700C99009102A9074EB0470FCD0FC495E8DC
S214083E800F0084E80F0008B070BD00BFBD360800FC
S214083E90CD360800693D08004FF6FF73A0F8DE34FB
S214083EA0A0F8E034A0F8E234A0F8E434A0F8E63449
S214083EB0A0F8E834A0F8EA34A0F8EC34A0F8EE3419
S214083EC0A0F8F0340020704770B588B004460D4658
S214083ED0002937D0002A38D0104604A91D4B984729
S214083EE004A804F1A8016A461B4B98470198039951
S214083EF01E221A4CA0470646009802991E22A04782
S214083F00301A40F351362E60029803991E22A047B5
S214083F100646009801991E22A047304440F35136C1
S214083F206E60019908461E22A04706460299084672
S214083F301E22A047C6F10056301A40F35136AE602E
S214083F40002004E04FF0FF3001E04FF0FF3008B0EB
S214083F5070BD00BF35710800D16B080005760800F3
S214083F6010B4034678B189B19AB114680868201A63
S214083F70186054684868201A586090688A68821AD8
S214083F809A60002007E04FF0FF3004E04FF0FF3063
S214083F9001E04FF0FF305DF8044B7047F0B58FB086
S214083FA0044600283ED000293FD008460AA9224BDE
S214083FB098470AA801A9214B984704984042C0137D
S214083FC00199C9131E4FB847400020601D4E314660
S214083FD010221D4DA847206008984042C013099932
S214083FE0C913B8474000606031461022A847606091
S214083FF0079908461E22A847C0F18040134B9847E9
S214084000C1130798C013B8474000A0603146102275
S214084010A847A0602368002B0ADA03F1B47323606C
S214084020002006E04FF0FF3003E04FF0FF3000E0DE
S21408403000200FB0F0BD00BF3571080041760800BB
S21408404081780800B84B390005760800CD6F08005F
S21408405038B5044615460339202900F24781DFE8BB
S21408406011F087004501450145014501450121003C
S21408407065009F004501450145014300450145018E
S21408408045014501450145014501450145011A011E
S214084090450145014501B700F900300145014501D4
S2140840A04501D800A4F8DE240921914B984720B191
S2140840B0B4F8DE349D4228BF1D4620460F218C4B9F
S2140840C0984720B1B4F8E0349D4228BF1D462046E4
S2140840D00A21874B9847002800F00881B4F8E23494
S2140840E09D4228BF1D4601E1A4F8E0240921804B23
S2140840F0984720B1B4F8DE349D4228BF1D462046B6
S2140841000F217B4B984720B1B4F8E0349D4228BF76
S2140841101D4620460A21764B9847002800F0E68080
S214084120B4F8E2349D4228BF1D46DFE0A4F8E22436
S21408413009216F4B984720B1B4F8DE349D4228BF5A
S2140841401D4620460F216A4B984720B1B4F8E03444
S2140841509D4228BF1D4620460A21654B98470028E1
S21408416000F0C480B4F8E2349D4228BF1D46BDE086
S214084170A4F8EC2403215E4B984720B1B4F8EC343D
S2140841809D4228BF1D4620460B21594B98470028BC
S21408419000F0AC80B4F8EA349D4228BF1D46A5E07E
S2140841A0A4F8EA240321524B984720B1B4F8EC341B
S2140841B09D4228BF1D4620460B214D4B9847002898
S2140841C000F09480B4F8EA349D4228BF1D468DE07E
S2140841D0A4F8E4241D21464B984720B1B4F8E434EB
S2140841E09D4228BF1D4620462321414B984720B1B3
S2140841F0B4F8E6349D4228BF1D4620461E213C4B97
S2140842009847002872D0B4F8E8349D4228BF1D4667
S2140842106CE0A4F8E6241D21354B984720B1B4F885
S214084220E4349D4228BF1D4620462321304B98473C
S21408423020B1B4F8E6349D4228BF1D4620461E210C
S2140842402B4B9847002851D0B4F8E8349D4228BF35
S2140842501D464BE0A4F8E8241D21254B984720B1BD
S214084260B4F8E4349D4228BF1D4620462321204B3F
S214084270984720B1B4F8E6349D4228BF1D4620462C
S2140842801E211B4B9847002830D0B4F8E8349D42CE
S21408429028BF1D462AE0A4F8F0241921144B984795
S2140842A020B1B4F8F0349D4228BF1D4620461F2191
S2140842B00F4B9847D0B1B4F8EE349D4228BF1D4640
S2140842C014E0A4F8EE241921094B984720B1B4F855
S2140842D0F0349D4228BF1D4620461F21044B9847B0
S2140842E020B1B4F8EE349D4228BF1D46284638BD96
S2140842F0854D080070B5044615460339202900F296
S2140843008E80DFE801F0598C8C8C8C8C1111598CBE
S2140843108C8C118C8C8C8C8C8C8C8C8C738C8C8C64
S2140843203535738C8C8C350009213D4B984738B150
S214084330B4F8DE644FF6FF739E4228BF1E4601E0BF
S2140843404FF6FF7620460F21354B984720B1B4F834
S214084350E0349E4228BF1E4620460A21304B984726
S21408436020B1B4F8E2349E4228BF1E462E8070BDA7
S2140843701D212B4B984738B1B4F8E4644FF6FF7309
S2140843809E4228BF1E4601E04FF6FF7620462321B0
S214084390234B984720B1B4F8E6349E4228BF1E4601
S2140843A020461E211E4B984720B1B4F8E8349E429A
S2140843B028BF1E462E8070BD0321194B984738B17A
S2140843C0B4F8EC644FF6FF739E4228BF1E4601E021
S2140843D04FF6FF7620460B21114B984720B1B4F8CC
S2140843E0EA349E4228BF1E462E8070BD19210C4B0B
S2140843F0984738B1B4F8F0644FF6FF739E4228BF6A
S2140844001E4601E04FF6FF7620461F21044B9847CC
S21408441020B1B4F8EE349E4228BF1E462E8070BDEA
S214084420854D080003290FD12523C0F88830C0F829
S2140844308420012380F88C3080F87D32FF2380F8B2
S214084440813280F8853270470023C0F88830C0F87B
S214084450843080F88C3070472DE9F04786B00446E3
S214084460D0F8846040F28511012203AB874DA84737
S214084470002840F0F480204640F285110022844B44
S2140844809847002840F0EC80204640F28911012227
S2140844900DF10D03A847002840F0E380204640F2BF
S2140844A0891100227A4B9847002840F0DB80204686
S2140844B04FF4C07101220DF10B03A847002840F005
S2140844C0D28020464FF4C0710022714B98470028CE
S2140844D040F0CA80F6B200210091204632463123C9
S2140844E06C4DA8470546002840F0A380D4F88830CD
S2140844F0233B012B0BD9402300932046002132464C
S2140845000C23644DA8470546002840F092801023E7
S214084510009320460021324631235E4DA8470546C3
S214084520002840F086804FF00A0A43F69829DFF8FC
S2140845306C81594F4846C0470123009304AB01934A
S2140845402046002132461023B8470546002870D179
S2140845509DF8103013F0010F40F087800AF1FF3AFB
S2140845601AF0FF0AE6D153E09DF811009DF81030C6
S21408457043EA00209DF813109DF8123043EA012103
S2140845809DF815209DF8143043EA0222D4F88830A6
S214084590232B14BF0823072300B294F84D50803508
S2140845A005FB00F51D41ADB209B294F84E00803007
S2140845B000FB01F0184180B212B294F84F10803117
S2140845C001FB02F242FA03F399B2626FB2F9007085
S2140845D02BB29F421FDBA36FB3F900702DB2AF4218
S2140845E01CDCB2F9027005B2AF421ADBB3F902500E
S2140845F000B2854218DCB2F904000AB2904216DB13
S214084600B3F904509542D4BF00256FF0000510E0BA
S2140846104FF0FF350DE04FF0FF350AE04FF0FF355D
S21408462007E04FF0FF3504E04FF0FF3501E04FF0AC
S214084630FF35D4F88830233B022B07D90021009198
S214084640204632460C23134FB847054300210091F5
S2140846502046324631230F4CA047284313E012E089
S21408466011E010E00FE00EE00DE00623009304AB27
S21408467001932046002132461123074DA8470546D8
S2140846800028D6D170E706B0BDE8F08739A808003C
S214084690ADA70800C14B08005D4B0800A90108003B
S2140846A070B5044690F881307BB10021084EB047BB
S2140846B0054620460121B047284307D12046054B2A
S2140846C09847002384F8813070BD002070BD00BF75
S2140846D0894A0800454B080030B585B00446503076
S2140846E000212422214B9847002384F84D3084F873
S2140846F04E3084F84F30E367012184F8801084F840
S214084700813094F88420009103A901912046194627
S214084710174DA84720BB9DF80C30482B21D1154BC8
S2140847206367154BA367312384F88230802284F8A8
S2140847304D2084F84E2084F84F2094F884200021D9
S2140847400091204601210D4DA84768B9012384F839
S2140847508130022384F88C302046094B984703E0C2
S21408476002E04FF0FF30FFE705B030BD33D7080052
S2140847705D4B0800F0610900E8610900C14B0800BC
S214084780A146080030B583B0044690F881301BBBBC
S21408479090F88030002B0CBF09210A2190F884205D
S2140847A041F0500300934FF000010CBF1023032381
S2140847B00C4DA84790B994F8842094F882300121CB
S2140847C000912046084DA84748B92046074B984709
S2140847D0012384F8813002E0002000E0FFE703B000
S2140847E030BD00BFC5490800214A08002D4B080007
S2140847F090F88C00022814BF00200120704700BFE4
S2140848002DE9F04F9DB00290144619A80DF16707E0
S21408481000260AE003EB4302CD5C85540133032BE4
S214084820F8D103310130B84201D03346F2E700250B
S214084830444F454E029B2B4493F84D00803080052C
S2140848403946B0470DAB43F825000135032DF1D1A5
S21408485000210B463D4E0D46E25686FB0370A0EB44
S214084860E37000EB4000181A1CAF07EB800050F806
S2140848703C0C00FB02F201F1100768463A5010A8FB
S2140848800D5001330431092BE6D1029F0397B84631
S214084890002701970DF11C0BDFF8AC9026E045F8D1
S2140848A004AB544655F8047C08EB040204EB4403B6
S2140848B0D2F88802F158C847384445F8040C04343E
S2140848C00C2CEFD104365E45E9D1019F01370197DC
S2140848D008F10C08032F09D113AE0DF1630C0DF186
S2140848E07008DDF80C904FF0000E1FE004AE08F1DB
S2140848F050054FF0000AD2E712F9010F04EB030A3D
S214084900DAF850A00AFB00110C33242BF4D145F832
S214084910041C0434B54204D055F8041B3A467346C2
S214084920EAE70C360CF1030C464504D04C46A6F1D3
S2140849300C056746F0E7029810A9054B98471DB086
S214084940BDE8F08F99999909BD6E080056555555DA
S214084950597F08002DE9F00F84B08B46043A00F121
S2140849604C037030039020E053F8041FCF173CF92F
S214084970020F00044FEAE07901FB09F600FB076620
S214084980A1FB00013144241845EB01055345EBD142
S214084990A30F43EA85030093AB170193009B42F8E5
S2140849A0043F039B9A4507D05346ABF1020C03F12C
S2140849B00C0A00240025D7E7002004B0BDE8F00F55
S2140849C0704700BF2DE9F04383B00746994662F06A
S2140849D07F0202AC04F8012D00EBC106B18D01225E
S2140849E023460E4DA84780468DF807903846F18D29
S2140849F001222346A84740EA08089DF8283063F0B5
S214084A007F038DF807303846318E01222346A847A3
S214084A1048EA000003B0BDE8F08300BF01A708001D
S214084A202DE9F04383B00746994602AC04F8012DF9
S214084A3000EBC106B18D01222346124DA8478046D9
S214084A408DF807903846F18D01222346A84740EA9C
S214084A5008089DF828308DF807303846718E0122F0
S214084A602346A84748EA000881238DF807303846C9
S214084A70318E01222346A84748EA000003B0BDE865
S214084A80F08300BF01A7080008B500EBC101098E36
S214084A900022014B984708BDADA7080038B5044664
S214084AA040F2831383854FF4C273C38540F285139F
S214084AB003864FF4C373438640F2871383864FF406
S214084AC0C473C38640F2891303874FF4C5734387BC
S214084AD040F28B1383874FF4C673C38740F28D1357
S214084AE0A0F840304FF4C773A0F8423040F28F1356
S214084AF0A0F844304FF4C873A0F8463040F291133B
S214084B00A0F848304FF4C973A0F84A300021064D83
S214084B10A84720460121A84720460221A847204644
S214084B200321A84738BD00BF894A080008B5027F98
S214084B3042F0200202770321014B984708BD00BFC8
S214084B40ADA7080008B5027F02F0DF02027703214E
S214084B50014B984708BD00BFADA70800F0B583B065
S214084B6004460E46089DEFB20097DBB20E4FB847D4
S214084B70074620460D4B984707434EF660200C4BD9
S214084B80984720460B4B9847074320463B212A4622
S214084B90099B094DA84747EA000520463146074BBA
S214084BA09847284303B0F0BDC54908002D4B0800B8
S214084BB0A9010800454B080039A80800894A0800DA
S214084BC070B582B004460E469DF818500095DBB2C4
S214084BD00A4DA84705462046094B984705434EF612
S214084BE06020084B98472046074B984705432046C1
S214084BF03146064B9847284302B070BD214A080044
S214084C002D4B0800A9010800454B0800894A0800F2
S214084C1010B50023491001334C08FBD1042BB8BF4C
S214084C200423012199401160D9B2014B984710BD61
S214084C3069620800012811D9831E9BB2012B10D97E
S214084C40031F9BB2032B0FD9A0F108039BB2082BB6
S214084C500CD910288CBF3820002070474FF461709C
S214084C6070474FF4E1707047E12070477020704736
S214084C70F0B413B1082313801AE00023138017E05A
S214084C80C319D3F8603173B1644613F0010F07D027
S214084C900D5B2EB2B6F1FF3F02D01688354315805D
S214084CA002345B08F1D104374031082FE8D102E01E
S214084CB00027BC46E4E7F0BC704700BF023825284A
S214084CC016D8DFE800F01315151515151515151364
S214084CD0151513151515151513151515131515157D
S214084CE015151513151513151515151301207047E9
S214084CF00020704710B54FF6FF74A14216D040F258
S214084D00654404FB01F14FF47A7404FB02F491FB4A
S214084D10F4F189B200EB430402FB01F2A4F8BC20CC
S214084D204A1E194612B2024B984710BD002010BD05
S214084D30657B080070B4531EF2B102314FF6FF755A
S214084D40012611F8022C02F01F0406FA04F4520990
S214084D50583250F82220144208D011F8012C00EBE3
S214084D604202B2F80621AA4238BF1546013B023174
S214084D70B3F1FF3FE5D101E04FF6FF75284670BC5A
S214084D80704700BF01F01F03012202FA03F3490926
S214084D90583150F821001840704700BFF8B505464E
S214084DA0BC3000214A22354B98472A460123122454
S214084DB0C82001E001330232A3F10D01022903D90C
S214084DC0A3F12001012902D8A2F8064106E0102B1B
S214084DD008BFA5F82441EDD0A2F80601242BE9D98E
S214084DE02A4600234FF00E0C4FF47A760520142737
S214084DF00E2B05D023F02001022901D0182B04D150
S214084E00A2F868C1A2F86A6116E00F2B0BD0A3F1CE
S214084E100904022C07D9A3F11D04022C03D903297F
S214084E2001D0192B04D1A2F86801A2F86A7103E030
S214084E30A2F86801A2F86A6101330432332BD7D18D
S214084E400020A5F83602A5F8380285F83A0285F853
S214084E503B02012385F83C32A5F83E02A5F840023D
S214084E60A5F85601A5F84202C823A5F84632A5F8C3
S214084E704832A5F84A32A5F84C32F8BD33D70800B0
S214084E80A0F8501171B18023A0F85431B0F85C3105
S214084E9043F08003A0F85C31B0F842320133A0F842
S214084EA042327047D0F8643113F4007F0DD10023E6
S214084EB0A0F85431B0F85C3123F08003A0F85C31D8
S214084EC0B0F84232013BA0F84232704771B18023F5
S214084ED0A0F85431B0F85C3143F08003A0F85C3198
S214084EE0B0F842320133A0F842327047B0F8503179
S214084EF063B9A0F85431B0F85C3123F08003A0F809
S214084F005C31B0F84232013BA0F84232704700BF2D
S214084F1010B5044661B1B0F85C1141F4807189B2ED
S214084F20A0F85C11094B9847012384F83A3210BD63
S214084F30B0F85C1121F4807189B2A0F85C11034BBB
S214084F409847002384F83A3210BD00BF457A080017
S214084F5090F83A02704700BF38B504460D46B0F8D8
S214084F605A3144F64042134217D02F4B9847013027
S214084F7040F2654393FBF0F303FB05F32B4981FBF3
S214084F800321DB17C3EBA111B4F87821AA423FD856
S214084F9020460122264B984738BD13F4004F03D10C
S214084FA003F4807292B2C2B12046224B9847013071
S214084FB040F2654393FBF0F303FB05F31B4981FBC3
S214084FC00321DB17C3EBA111B4F86C21AA4222D83F
S214084FD020460222164B984738BD42F2200213425A
S214084FE01CD0154B984740F2654393FBF0F000FB46
S214084FF005F00E4981FB0031C017C0EBA111B4F8CB
S2140850007031AB420DD820460822094B984738BD68
S2140850104FF0FF3038BD4FF0FF3038BD4FF0FF304F
S21408502038BD4FF0FF3038BD65620800D34D6210BA
S214085030D57B08008D64080081620800B0F850012E
S214085040704700BF08B50B2908D0162909D0074BAA
S214085050074A0A290CBF1146194604E04FF00071AA
S21408506001E04FF08061034B984708BD2EBAE80070
S2140850705D74D101B97E080000B585B000230193A0
S21408508002930393052904D81D4B01931D4B0293E5
S21408509030E00A2904D81C4B01931C4B029329E0E4
S2140850A00B2907D84FF033330193194B029301238A
S2140850B003931FE0142904D8164B0193164B02934A
S2140850C018E0162905D84FF033330193104B029396
S2140850D010E04B2907D8114B0193A3F1AA3303F12B
S2140850E04043029306E0E12904D80D4B0193A3F14F
S2140850F0CC33029301A90B4B984705B05DF804FB27
S2140851007DD2273D832DD8029224493A6EDBB60518
S214085110CDCCCC0C25499234DBB66D0B55555515C0
S21408512066666606E97E08002DE9F04FA3B00446D9
S2140851309E4B1E4656F8100B21901EAA1D4655F883
S214085140040F696803C22989118030681D901AAA5D
S2140851501D4655F8140F696803C22989118017AAD5
S2140851601D4655F8200F696803C229891180D86A38
S214085170169013AD1A4652F8300F5168926807C554
S21408518011AA194651F83C0F496803C2586C10908A
S214085190986C0F901D4655F84C0B0E9003AF03F114
S2140851A06C0E3E4628686968AA68EB680FC6103514
S2140851B037467545F5D12868696803C72B893B804B
S2140851C0204603A915227A4B98470546D4F86071FD
S2140851D017F0020F13D0D4F8643113F4806F09D097
S2140851E0B4F84622B4F848329A4238BF1346A4F8B0
S2140851F006310DE0B4F84632A4F8063108E0D4F8D3
S214085200643113F4806F1CBFB4F84832A4F8063132
S214085210B4F854312BB1B4F820319D4228BF1D464E
S214085220ADB2B4F858312BB1B4F822319D4228BF3C
S2140852301D46ADB2B4F856312BB1B4F824319D42B0
S21408524028BF1D46ADB2D4F8648118F0800B02D191
S21408525017F4801F03D0052D28BF0525ADB2554B82
S21408526017EA030A03D0052D28BF0525ADB203AEFD
S214085270DFF838E15EF8780FDEF80410DEF808206C
S214085280DEF80C300FC6DEF81000DEF81410DEF874
S214085290182007C6BEF81C303380204603A90F2204
S2140852A0434B9847814617F4803F11D018F4006F97
S2140852B009D0B4F84A22B4F84C329A4238BF13469A
S2140852C0A4F808310BE0B4F84A32A4F8083106E02E
S2140852D018F4006F1CBFB4F84C32A4F80831BAF1C1
S2140852E0000F06D0B9F1050F28BF4FF005091FFAC1
S2140852F089F903AEDFF8B4E05EF8980FDEF804101C
S214085300DEF80820DEF80C300FC6DEF81000306035
S214085310204603A90A22264B98478046BBF1000F71
S21408532002D117F4801F06D0B8F10F0F28BF4FF030
S2140853300F081FFA88F8BAF1000F06D0B8F11C0F4C
S21408534028BF4FF01C081FFA88F8204621A9022219
S214085350174B98470190A94534BFCA46AA461FFA74
S2140853608AFA824528BF82461FFA8AFAC24528BFAB
S214085370C2461FFA8AFA4FF6FF739A4520D0BAF14A
S214085380010F08D1637E012B23D184F844322046CE
S214085390094B98471DE094F84432D3B1002384F8AB
S2140853A044322046054B984713E000BFF8610900D1
S2140853B0354D080000080080C5610800A561080092
S2140853C094F844322BB1002384F844322046204B0C
S2140853D098474FF6FF739D420CBF1D4655469945A4
S2140853E00CBF9946D14698450CBF9846D046019AB8
S2140853F09A4218BF53460193B4F84232002B31D074
S214085400122D34BF28461220124EB0474FF47A7534
S21408541095FBF0F085B22846B047014620460E4B6D
S2140854209847C82D34BF2B46C82340F2654606FB6E
S21408543003F30A4E86FB03C6DB17C3EBA616B6B203
S2140854402046294632460D23054FB84707460BE047
S214085450A5610800354C08006D810800D34D621020
S214085460F54C080000263746B4F8563143B3122DDB
S21408547034BF2846122080B2944EB0474FF47A754F
S21408548095FBF0F085B22846B04701462046904B7B
S2140854909847C82D34BF2B46C82340F2654606FBFE
S2140854A003F38C4E86FB0326DB17C3EBA616B6B2B1
S2140854B02046294632460F23DFF830C2E047074326
S2140854C04FF6FF739D424BD0C82D34BF2E46C826D4
S2140854D0B6B240F2654303FB06F67E4B83FB06C670
S2140854E0C6F38F16B4F83632B34213D02046314688
S2140854F0794B9847834620463146784B98474BEA7F
S21408550000000743711E204609B2754B98470743AB
S214085510A4F8366220461EA90522DFF8D4B1D8477B
S2140855200146204632460023DFF8C0C1E04707435D
S21408553020461DA90222D8470146204632460723A0
S214085540DFF8A8C1E047074320461AA90522D8472E
S2140855500146204632460C23DFF890C1E047074351
S2140855604FF6FF7399454CD0B9F1C80F34BF49467A
S214085570C82189B240F2654303FB01F1554B83FB12
S214085580012189118EB2B4F83832B34207D00139F6
S2140855902046C9B2534B98470743A4F838622046BA
S2140855A017A90522DFF848B1D847014620463246F3
S2140855B00123DFF838C1E0470743204616A9022230
S2140855C0D8470146204632460A23DFF820C1E0477E
S2140855D00743204613A90622D847014620463246E6
S2140855E00523DFF808C1E0470743204611A904222F
S2140855F0D8470146204632460623DFF8F0C0E04783
S21408560007434FF6FF73984502D1019A9A4259D03C
S214085610002303934FF6FF739D424CD1994543D11F
S214085620BAF1C80F28BF4FF0C80A40F2654101FB1F
S2140856300AF1284B83FB01C12046C1F38F1103AA48
S214085640294B98470743BDF80C604FF6FF739845FB
S21408565018D0204610A90222DFF89480C0470146D9
S214085660204632460323214DA847814620460FA9E7
S2140856700222C0470146204632460B23A84749EA7D
S214085680000007434FF6FF73019A9A421AD0204645
S2140856900EA90222164B9847014620463246092391
S2140856A0124CA04707430DE02046314603AA0E4B8E
S2140856B098470743C9E72046314603AA0A4B984746
S2140856C00743C2E7384623B0BDE8F08F354C0800DC
S2140856D0DD810800D34D6210455008007950080057
S2140856E08562080045620800114C0800F54C080061
S2140856F0354D080070B504460D46164608468C4BD0
S214085700984728B120468B4B9847002800F00C8114
S214085710A5F111031E2B12D8DFE803F010101011A4
S214085720111111111111111111111111111111115C
S2140857301010111110111111101010001226204609
S2140857407D4B984705F15A0334F82320964238BF14
S214085750164604EB8503B3F86A319E4234BF3246D8
S2140857601A466B1E2E2B00F2C980DFE803F0188558
S214085770776B88BFC7BC6E6E77C7C7826E478E3C8E
S2140857803C3FC7888BB9AB9FBCC2A2A2ABC7C7B603
S214085790A29C8E8E91C7962A59C799C54400D4F8FC
S2140857A0643113F4806F07D0B4F848329A4238BF91
S2140857B01346A4F8063101E0A4F80621A4F8462208
S2140857C09CE0D4F8603113F0020F07D0B4F84632E4
S2140857D09A4238BF1346A4F8063101E0A4F8062119
S2140857E0A4F848228AE0A4F81E2187E0A4F8142129
S2140857F0A4F82A2182E0A4F820217FE0D4F86431B6
S21408580013F4006F07D0B4F84C329A4238BF1346E8
S214085810A4F8083101E0A4F80821A4F84A226DE0AB
S214085820D4F8603113F4803F07D0B4F84A329A426D
S21408583038BF1346A4F8083101E0A4F80821A4F8F4
S2140858404C225BE0A4F81A2158E0204629463B4B38
S2140858509847A4F81001A4F826014FE020462946E8
S214085860364B9847A4F81201A4F82801A4F82C018E
S21408587044E0A4F80C2141E0A4F81C213EE0A4F87A
S2140858800E213BE0A4F82E2138E0A4F8442135E0A8
S214085890A4F83A21A4F84C2130E0A4F846212DE0DB
S2140858A0A4F824212AE0A4F8302127E0A4F840210F
S2140858B024E020462946214B9847A4F83601A4F848
